:020000040020DA
:10000000A84F0020915F2100755F2100815F2100D2
:10001000895F2100895F2100895F210000000000C5
:10002000000000000000000000000000895F2100C7
:10003000895F210000000000895F2100895F2100A5
:10004000895F2100895F2100895F2100895F21008C
:1000500000000000895F2100895F2100895F210085
:10006000895F210000000000000000000000000087
:100070000000000000000000895F21000000000077
:100080000000000000000000895F2100895F21005E
:10009000895F2100895F2100895F2100895F21003C
:1000A000895F2100895F2100895F2100895F21002C
:1000B000895F2100895F2100895F2100895F21001C
:1000C000895F2100895F2100895F2100895F21000C
:1000D000895F210000000000000000000000000017
:1000E0000000000000000000000000000000000010
:1000F000895F210000000000895F2100895F2100E5
:1001000000000000000000000000000000000000EF
:1001100000000000000000000000000000000000DF
:1001200000000000000000000000000000000000CF
:1001300000000000000000000000000000000000BF
:1001400000000000000000000000000000000000AF
:10015000000000000000000000000000000000009F
:10016000000000000000000000000000000000008F
:10017000000000000000000000000000000000007F
:10018000000000000000000000000000000000006F
:10019000000000000000000000000000000000005F
:1001A000000000000000000000000000000000004F
:1001B000000000000000000000000000000000003F
:1001C000000000000000000000000000000000002F
:1001D000000000000000000000000000000000001F
:1001E000000000000000000000000000000000000F
:1001F00000000000000000000000000000000000FF
:1002000000000000000000000000000000000000EE
:1002100000000000000000000000000000000000DE
:1002200000000000000000000000000000000000CE
:1002300000000000000000000000000000000000BE
:1002400000000000000000000000000000000000AE
:10025000000000000000000000000000000000009E
:10026000000000000000000000000000000000008E
:10027000895F2100895F2100895F2100895F21005A
:10028000895F2100895F2100895F210080B500AF6F
:1002900014F0D2FA12F0FEFA00F006F812F00CFB9D
:1002A0000023184680BD00BF80B500AF12F08EFB62
:1002B0000CF096F90CF040FC0DF000F813F008FD7E
:1002C00000F020F804F002FD05F03EFC03F032F8E7
:1002D00004F0D0F909F08CFC07F0E2FE09F058FDBB
:1002E0000AF0D2FC0AF044FD0AF0A2FE0BF0FEFE7A
:1002F0000EF008FA012035210022002312F012FC32
:1003000080BD00BFB0B582B002AF324800214FF4CB
:10031000D4721AF061FE3048002110221AF05CFEFF
:100320002C4B002283F87A212A4B012283F8992151
:10033000284B002283F89A21264B4FF4A472A3F88D
:100340009E21244B0122C3F85821224B234A03F556
:10035000BE7413460FCB84E80F000CF091F90346EE
:10036000002B03D0012002F0F3FC02E0002002F099
:10037000EFFC02F045FD1A4B00229A7115F0BCFA11
:10038000184815F053FA184815F05EFA13F0C6FC39
:1003900003461A460F4B83F8A0210E4B93F8A03169
:1003A0001846002113F0E8FF0A4B93F8A041094BCF
:1003B000B3F89E311D4615F0F1FC02460B4B00933D
:1003C00020462946012313F029FE02F0BBFEBD465C
:1003D000B0BD00BFC04F00207851002048B12100BF
:1003E0006851002009082000DD082000590620007F
:1003F00080B584B000AF786017F06EFE264B1A7897
:100400007B681B789A4204D017F05AFE4FF0FF33F6
:100410003EE00023FB60204BB3F801309AB27B68CA
:10042000B3F801309BB29A420CD117F049FE1A4B37
:10043000B3F803309BB21A467B68B3F803309BB223
:10044000D31A25E0144BB3F801309BB21A467B68EF
:10045000B3F801309BB2D31A012B13D10E4BB3F872
:1004600003309BB2FB607B68B3F803309BB21A4643
:10047000FB689B1A03F57F43FF33FB60FB68013386
:10048000FB6002E04FF0FF33FB6017F019FEFB68E2
:1004900018461037BD4680BDC04F002080B485B0DF
:1004A00000AF786039607B681A783B681B789A42A5
:1004B00002D04FF6FF733BE00023FB817B68B3F86B
:1004C00001309AB23B68B3F801309BB29A420BD12B
:1004D0007B68B3F803309AB23B68B3F803309BB241
:1004E000D31A9BB29BB223E07B68B3F801309BB276
:1004F0001A463B68B3F801309BB2D31A012B13D1D3
:100500007B68B3F803309BB2FB81FA893B68B3F890
:1005100003309BB2D31A9BB2013B9BB2FB81FB8998
:1005200001339BB2FB8102E04FF6FF73FB81FB8935
:100530001BB218461437BD465DF8047B704700BFF8
:1005400080B586B000AF03463960FB800023FB75A1
:100550000023BB7500237B7500237B8200233B8235
:1005600007F108031846002105221AF035FD02F0B4
:1005700025FB03461A4640F2311303FB02F31F4AE0
:1005800082FB03121213DB17D31A7B75FA887B7D6B
:1005900092FBF3F33B823B8ADBB23B723B8A1B0A42
:1005A0009BB2DBB27B72386801F0A8FF0023FB75B9
:1005B0001EE0FB7D3A6813441B789AB2FB7D07F17D
:1005C00018010B4413F8103C9BB213449AB2BB7D44
:1005D0009BB213447B82FB7D3A6813447A8AD2B281
:1005E0001A707B8A1B0A9BB2BB75FB7D0133FB75BE
:1005F000FB7D042BDDD91837BD4680BDAD8BDB6894
:1006000080B483B000AF786039607B681B789AB2A1
:100610007B6801331B789BB21B029BB213449AB2D6
:100620003B68A3F803207B6802331B789AB27B688F
:1006300003331B789BB21B029BB213449AB23B68F4
:10064000A3F801207B681A793B681A700C37BD4605
:100650005DF8047B704700BF80B584B002AF0346ED
:10066000FB7113F067FE02461D4BC3F8A4211C4B1F
:1006700093F8A0111A4BD3F8A4211A4B0093084603
:100680004FF4A471012313F0C9FC154B4FF4A4726D
:10069000A3F89E21124B1B7C83F00103DBB2002BDD
:1006A00013D00BF0EDFF0346002B0BD0012002F01E
:1006B0004FFB01F007FF05F05FF803461A46084BB1
:1006C0001A8104E000F0B6F901E000F003FC064BEB
:1006D0001B680133044A13600837BD4680BD00BF64
:1006E000C04F0020590620007851002080B582B00C
:1006F00000AF0346FB71424B93F85C31043B142B73
:1007000068D801A252F823F05D072000630720009B
:10071000690720006F072000750720007B07200075
:1007200081072000870720008D0720009307200005
:10073000D5072000990720009F072000A50720006B
:10074000AB072000B1072000B7072000BD0720003D
:10075000C3072000C9072000CF07200000F042FE99
:1007600045E000F095FE42E000F0A4FE3FE000F01E
:10077000BFFE3CE000F004FF39E000F07DFF36E012
:1007800000F0ACFF33E000F0BBFF30E000F0D6FF3C
:100790002DE001F035F82AE001F07EF927E001F0C4
:1007A000ADF924E001F0BCF921E001F0D7F91EE039
:1007B00001F014FA1BE001F0FDFB18E001F0D4FC9D
:1007C00015E001F0E3FC12E001F0FEFC0FE001F0A7
:1007D00043FD0CE00A4B93F85C319AB2084BDB887E
:1007E00009201F2112F0BCF902F0DCFB00BF054B11
:1007F0005B680133034A53600837BD4680BD00BFC4
:10080000C04F00207851002080B584B000AF7860E0
:10081000304BD3F8A4317A68D31AFB602D4B1B7C84
:1008200083F00103DBB2002B03D0F86800F08EF9EF
:1008300047E0284B93F85C31073B102B34D801A2DA
:1008400052F823F089082000A9082000A9082000F8
:10085000A90820009108200091082000A908200084
:10086000A9082000A9082000A90820009908200054
:1008700099082000A9082000A9082000A908200044
:10088000A9082000A1082000F86800F043FE18E045
:10089000F86800F07FFF14E0F86801F065F910E0F7
:1008A000F86801F0A3FC0CE00A4B93F85C319AB2B3
:1008B000084BDB880920202112F052F902F072FB6C
:1008C00000BF054B9B680133034A93601037BD4658
:1008D00080BD00BFC04F00207851002080B584B09B
:1008E00000AF7860304BD3F8A4317A68D31AFB603C
:1008F0002D4B1B7C83F00103DBB2002B03D0F86887
:1009000000F040F947E0284B93F85C31083B102B8E
:1009100034D801A252F823F05D0920007D0920009F
:100920007D0920007D0920007D0920006509200047
:100930007D0920007D0920007D0920007D0920001F
:100940007D0920006D0920007D0920007D0920001F
:100950007D0920007D09200075092000F86800F05D
:1009600021FE18E0F86800F05DFF14E0F86801F07F
:1009700047F910E0F86801F081FC0CE00A4B93F8AD
:100980005C319AB2084BDB880920212112F0E8F88B
:1009900002F008FB00BF054BDB680133034AD3605C
:1009A0001037BD4680BD00BFC04F002078510020E9
:1009B00080B582B000AF0D4B1B783B700B4BB3F88A
:1009C00001309BB2A7F80130084BB3F803309BB25B
:1009D000A7F803303B4604201946052212F05EF8C2
:1009E000012318460837BD4680BD00BFC04F002018
:1009F00080B582B000AF0023FB71074B1B7CFB71FD
:100A0000FB1D00201946012212F048F80123184668
:100A10000837BD4680BD00BFC04F002080B500AF85
:100A2000052003490F2212F039F80123184680BD32
:100A30006851002080B500AF424B93F85C31022B27
:100A400000D17EE015F0AAF902463E4BC3F8902192
:100A50003C4B012283F898213A4B93F85C31012BEF
:100A60001BD0012002F04AFA14F04CFF0CF048FCB5
:100A70000346DBB203F00F03DBB20B33DAB2314BC8
:100A800083F878212F4B93F87831184614F010FF33
:100A900014F0C0FF14F0CEFF13E02B4BD3F8073057
:100AA000284AB2F89E211344274AC2F80730264B41
:100AB000D3F80B30234AB2F89E211344224AC2F8DD
:100AC0000B30204B93F85C31012B1FD11D4B93F859
:100AD0007B31002B1AD014F015FF1A4B93F87A31A2
:100AE000184602F0E1F903461A46164B83F87821BE
:100AF000144B93F87831184614F0DAFE14F08AFF9C
:100B000014F098FF0F4B002283F87B2101F082FC48
:100B10000C4BB3F803309BB203F00F03002B04D14E
:100B200012F0C6FA12F00EFA0BE0064BB3F80330DF
:100B30009BB203F00F03082B03D112F0B9FA12F0A5
:100B4000CBF980BDC04F00206851002080B582B035
:100B500000AF78600A4B93F85C31012B00D00CE0B9
:100B6000022002F0CBF912F0A3FA054A7B68C2F822
:100B70007031034A7B68C2F874310837BD4680BDC6
:100B8000C04F0020B0B596B002AF7860AC4B93F880
:100B90005C31022B0BD0AA4B93F85C319BB209203D
:100BA0001D211A46002311F0DBFF02F0FBF90320A0
:100BB00002F0A4F909200CF013F80246A04BC3F888
:100BC00064219F4BD3F86431002B08D109202C21DC
:100BD0000022002311F0C4FF02F0E4F92CE1984B4D
:100BE000D3F8643109221A70954BD3F86431092285
:100BF0005A70934BD3F86431914AD2F86421C132D0
:100C00005A608F4BD3F8643158688D4BD3F86431F8
:100C100003F108018A4BD3F8643103F1BD04884B1A
:100C2000D3F8643103F1BE02854BD3F86431BF338E
:100C3000009201938222234614F016FF804BD3F8D2
:100C400064311B7A012B05D97D4BD3F864311B7AB3
:100C5000802B0AD97A4BD3F864311B7A9BB20920D6
:100C60003721002211F07CFFD9E0754BD3F86431B5
:100C7000184602210CF0F4FE714BD3F8643193F85E
:100C8000BF3083F00103DBB2002B00D0C7E06C4B18
:100C9000D3F8642107F11003104619460DF0BCFA91
:100CA0003B7C83F00103DBB2002B00D0B7E0644B48
:100CB000D3F86431BA7C83F84D20614BD3F86431AA
:100CC0007A7E83F84E205E4BD3F864313C331A466B
:100CD00007F13D031D685C689868D9681560546029
:100CE0009060D1601B7C1374554BD3F8642107F1DD
:100CF00010031046194602F011FB034683F001036E
:100D0000DBB2002B00D08AE04D4BD3F8643193F86E
:100D1000A030002B19D04A4B1B7C83F00103DBB2BF
:100D2000002B7CD0BB7C002B79D1454BD3F86421C0
:100D300007F110031046194601F03CFC034683F00E
:100D40000103DBB2002B00D069E03D4BD3F86421F6
:100D50007B7C104619460CF03FFE0023FB813B7C58
:100D6000002B21D0FB7D002B1ED0BB7C002B1BD188
:100D700004200BF0BFFC024607F110030B331846AA
:100D800011460CF009FD0346002B0DD02C4BD3F877
:100D9000642107F10E031046194600F053F803468C
:100DA000002B01D0012300E00023002B00D136E00E
:100DB00014F0A8FD14F0F2FF0246214BD3F8903155
:100DC000D31A1F4AD2F8942113441D4AC2F8943111
:100DD0001B4BD3F86421FB89DBB2104619460CF09B
:100DE000FBFD174BD3F87431184601F013FF0120B7
:100DF00001F0AEFF124BDB8809201B211A460023AD
:100E000011F090FE0E4BD3F86431184601F0DAFF72
:100E10000B4B0022C3F8642102F0C4F80CE0084B2D
:100E2000D3F8643118460BF039FF054B0022C3F8A4
:100E30006421012002F062F85037BD46B0BD00BF0A
:100E4000C04F002080B584B000AF7860396078680A
:100E5000396801F007FC0346002B2DD001F0F4FDAA
:100E60001B4BDB88184604F05FFC04F085FC03464E
:100E70001A46174B1A810023FB730EE0144B93F8AC
:100E800078310B3BFA7B12490A4492F87C21934259
:100E900000D105E0FB7B0133FB73FB7B0F2BEDD90E
:100EA00004F0BAFC03461A46FB7B9B1ADAB2084BE5
:100EB00083F87921012306E0092040210322002341
:100EC00011F04EFE002318461037BD4680BD00BF0E
:100ED000C04F002080B58CB002AF002387F82630C9
:100EE000002387F8253001F095FA13F0C9FFBA4BBB
:100EF000DB88002B01D113F0A5FF0BF0C1FB0346EB
:100F000083F00103DBB2002B27D0B34BDA68B24B7E
:100F1000D3F858319A4208D9AF4BDA68AE4BD3F8C0
:100F20005831D31AAC4AD36017E0AB4B0122C3F857
:100F30005821002001F00CFFA74BDB8809201A2163
:100F40001A46002311F00CFEA44B9B790133DAB250
:100F5000A24B9A7102F026F83BE29F4B93F85C316A
:100F6000002B0CD09C4B93F85C319AB29A4BDB88E7
:100F700009201E2111F0F4FD02F014F829E2964B2D
:100F80000122C3F85821944BDA88934B1B899A426B
:100F900040F0908004F0E0FB04F03EFC034618466D
:100FA00001F082FF03461A468B4B83F8782104F048
:100FB000E3FB03461A46884B1A810BF089FB034674
:100FC000002B59D00BF05CFB034683F00103DBB22E
:100FD000002B51D0804B1A897F4BDB889A420AD96B
:100FE0007D4B1B891A467C4BDB88D31A1A467A4BF9
:100FF000C3F858210DE004F0D3FB03461A46764BA4
:101000001B891344744AD2889B1A1A46724BC3F840
:101010005821714B93F8A0016F4BD3F858314FF41E
:10102000A47202FB03F16C4BD3F8A4216C4B009328
:10103000012312F0F3FF684BD3F858319BB21A46E4
:1010400092001A44D2001344DB009AB2624BA3F818
:101050009E21002387F8273006E001F0DBF997F89E
:101060002730013387F8273097F827205A4BD3F8D9
:101070005831013B9A42F0D304F07EFB03461A46F6
:10108000554B1A8104F09EFB034687F8243097F8ED
:101090002430013B042B00F28D8101A252F823F091
:1010A000C310200075122000C3102000AF122000D2
:1010B000D113200011F0FCFF01F074FF11F042FF8A
:1010C00087E111F0F5FF444B0022C3F8602107F1DE
:1010D0001003184604F08AFB04F0B2FB0346002B11
:1010E0006AD007F1100318460CF03AFA034683F071
:1010F0000103DBB2002B18D007F1100318460CF0E7
:1011000029F80246344BC3F86021334BD3F86031E1
:10111000002B04D007F11003184603F01FFB07F162
:101120001003184603F0EAFA46E007F110031846E8
:101130000BF092FE0246284BC3F86021264BD3F8F1
:101140006031002B0DD197F82430032B09D10123F6
:1011500087F825300BF076FF02461F4BC3F860215D
:101160002AE01D4BD3F860313C33184604F0A8FA4E
:101170000346002B20D0184BD3F860311B780F2B7F
:1011800006D1154BD3F8603193F89330062B13D06A
:101190000BF09CFF0246104BC3F860210E4BD3F8B6
:1011A0006031002B08D1012387F825300BF04AFF6E
:1011B0000246094BC3F86021074BD3F86031002B7E
:1011C00010D197F82430012B02D101F0EBFE00E1A1
:1011D000012387F826304DE0C04F002068510020E1
:1011E00059062000042001F089FE7B4BD3F86031C2
:1011F00009225A7097F82530002B21D007F10803F7
:10120000184601F07BF90AF0A9F903461B0A9BB2C4
:10121000DBB2013BDBB2FB716F4BD3F86031D3F82B
:10122000942007F1080310461946052219F05EFEC6
:10123000694BD3F86031D3F894300533FA791A70DA
:10124000654BD3F8603193F850200132D2B283F865
:101250005020614B93F8A0015F4BD3F8703103F13C
:1012600034015D4BD3F8A4215C4B0093012312F0B1
:10127000D5FEAEE097F8263083F00103DBB2002BF9
:1012800001D011F015FF0F2001F038FE524B93F8FA
:10129000A001514BD3F8703103F11E014E4BD3F82E
:1012A000A4214E4B0093012312F0B8FE91E011F0FF
:1012B000FFFE01F077FE11F00FFE474B0322C3F84B
:1012C0005821002387F827300EE001F0A3F804F03E
:1012D00043FA04F051FA03461A463F4B1A8197F835
:1012E0002730013387F8273097F82730012BECD9C6
:1012F0000BF0EEF90346002B3BD00BF0C1F903468F
:1013000083F00103DBB2002B33D0334B1A89324B0D
:10131000DB889A420BD9304B1B891A462E4BDB884F
:10132000D31A02331A462C4BC3F858210EE004F0AE
:1013300037FA03461A46284B1B891344264AD2889B
:101340009B1A02331A46244BC3F85821002387F80E
:10135000273006E001F05EF897F82730013387F870
:10136000273097F827201C4BD3F85831033B9A427B
:10137000F0D3194B93F8A001174BD3F858314FF421
:10138000A47202FB03F1144BD3F8A421144B009375
:10139000012312F043FE104BD3F858319BB21A468A
:1013A00092001A44D2001344DB009AB20A4BA3F80D
:1013B0009E210EE011F07CFE97F824309AB2064B85
:1013C000DB880920182111F0EBFB01F0EBFD00E0B8
:1013D00000BF2837BD4680BDC04F0020ED0620006D
:1013E0005906200080B582B002AF052001F086FDCD
:1013F000244B93F8A001234BD3F8703103F13E0145
:10140000204BD3F8A421204B0093012312F006FEB9
:101410001C4BD3F860311D4819460CF03DFB194BAD
:1014200093F8B430002B08D0184801F037FF03467A
:10143000002B02D001F0B6FD21E0144802210CF08F
:10144000F1FA104B93F87831184614F031FA0D4B3D
:101450009A690C4B1B7F9BB21046194614F066FA32
:1014600014F0A0FA14F09AFC0246064BC3F890213F
:10147000044B012283F89821062001F03FFDBD4670
:1014800080BD00BFC04F0020ED062000D44F0020DB
:1014900080B500AF064B93F85C319AB2044BDB8801
:1014A0000920222111F05CFB01F07CFD80BD00BF12
:1014B000C04F002080B582B002AF072001F01EFDB2
:1014C000094B93F8A001084BD3F8703103F15F0189
:1014D000054BD3F8A421054B0093012312F09EFD88
:1014E00014F070FABD4680BDC04F0020ED0620000C
:1014F00080B500AF064B93F85C319AB2044BDB88A1
:101500000920272111F02CFB01F04CFD80BD00BF0C
:10151000C04F002090B585B002AF7860082001F080
:10152000EDFC144B93F8A011124BB3F89E311C46FE
:10153000104BD3F8A421104B0093084621460123F9
:1015400012F06CFD0B4A7B68C2F87031094B93F8BE
:10155000A001084BD3F8703103F1A401054BD3F877
:10156000A421064B0093012312F058FD0C37BD4611
:1015700090BD00BFC04F002059062000ED0620009E
:1015800080B500AF064B93F85C319AB2044BDB8810
:101590000920262111F0E4FA01F004FD80BD00BF0E
:1015A000C04F002090B587B002AF7860092001F0ED
:1015B000A5FC2E4B93F8A0112C4BB3F89E311C4682
:1015C0002A4BD3F8A4212A4B009308462146012335
:1015D00012F024FD14F096F914F0E0FB0246234BC0
:1015E000D3F89031D31A214AD2F8942113441F4AD8
:1015F000C2F894311D4A7B68C2F870311B4BD3F896
:1016000060313C3318460BF0ABFF0346002B02D091
:101610000023FB7301E00123FB73FB7B002B10D045
:10162000124B93F8A001114BD3F8703103F10A016A
:101630000E4BD3F8A4210F4B0093012312F0EEFCC4
:1016400010E00A48012104F073F9084BD3F8603127
:101650001846002101F096FB044B0022C3F86021DC
:1016600001F0A0FC1437BD4690BD00BFC04F002064
:1016700059062000ED06200080B582B002AF0A2096
:1016800001F03CFC134B93F8A001124BD3F87031DE
:1016900003F114010F4BD3F8A4210F4B0093012346
:1016A00012F0BCFC0B4B93F87831184614F000F99B
:1016B00014F0B0F914F072FB0246064BC3F8902107
:1016C000044B012283F898210B2001F017FCBD4642
:1016D00080BD00BFC04F0020ED06200080B500AFE8
:1016E000064B93F85C319AB2044BDB880920232126
:1016F00011F036FA01F056FC80BD00BFC04F00204B
:1017000080B582B002AF0C2001F0F8FB14F092F922
:10171000084B93F8A001074BD3F8703103F12E0169
:10172000044BD3F8A421044B0093012312F076FC60
:10173000BD4680BDC04F0020ED06200080B500AF43
:101740001348002104F0F4F8114BD3F8603193F8FA
:101750004F20013AD2B283F84F200D4BD3F86031BD
:1017600093F84F30002B07D1094BD3F8603118465E
:10177000012101F007FB04E0054BD3F860310A2298
:101780005A70034B0022C3F8602101F00BFC80BDAE
:10179000C04F002090B585B002AF78600D2001F0F9
:1017A000ADFB144B93F8A011124BB3F89E311C46BD
:1017B000104BD3F8A421104B009308462146012377
:1017C00012F02CFC0B4A7B68C2F87031094B93F87D
:1017D000A001084BD3F8703103F15001054BD3F849
:1017E000A421064B0093012312F018FC0C37BD46D0
:1017F00090BD00BFC04F002059062000ED0620001C
:1018000080B500AF064B93F85C319AB2044BDB888D
:101810000920292111F0A4F901F0C4FB80BD00BF0B
:10182000C04F0020B0B594B002AF78600E2001F038
:1018300065FB974B93F8A011954BB3F89E311C466E
:10184000934BD3F8A421934B0093084621460123E0
:1018500012F0E4FB14F056F814F0A0FA02468C4B98
:10186000D3F89031D31A8A4AD2F894211344884A83
:10187000C2F89431864A7B68C2F8703109200BF0B7
:10188000AFF90246824BC3F86C21814BD3F86C311F
:10189000002B08D109202C210022002311F060F92F
:1018A00001F080FBF0E07A4BD3F86C3109221A701A
:1018B000774BD3F86C3109225A70754BD3F86C31E1
:1018C000734AD2F86C21C1325A60714BD3F86C3133
:1018D00058686F4BD3F86C3103F108016C4BD3F8A7
:1018E0006C3103F1BD046A4BD3F86C3103F1BE02D5
:1018F000674BD3F86C31BF330092019382222346A9
:1019000014F0B2F8624BD3F86C311B7A012B05D975
:101910005F4BD3F86C311B7A802B0AD95C4BD3F820
:101920006C311B7A9BB209203721012211F018F982
:101930009EE0574BD3F86C31184602210CF090F81A
:10194000534BD3F86C3193F8BF3083F00103DBB213
:10195000002B00D08CE04E4BD3F86C2107F108032C
:10196000104619460CF058FC3B7A83F00103DBB2B9
:10197000002B00D07CE0464BD3F86C31BA7A83F868
:101980004D20434BD3F86C317A7C83F84E20404B8A
:10199000D3F86C313C331A4607F135031D685C6897
:1019A0009868D968156054609060D1601B7C13748E
:1019B000374BD3F86C2107F108031046194601F0A4
:1019C000ADFC034683F00103DBB2002B00D04FE0F7
:1019D0002F4BD3F86C3193F8A030002B09D02C4B4F
:1019E000D3F86C31184601F065FC0346002B00D09B
:1019F0003EE0274BD3F86C217B7A104619460BF05A
:101A0000EBFF234BD3F8603107F10802104619466B
:101A100000F0C6FC034683F00103DBB2002B00D0CC
:101A200026E00AF02DFE034683F00103DBB2002B13
:101A30000FD0174BD3F86C313C33184609F05AFDE0
:101A40000346002B05D0B7F846301BB2184601F00C
:101A50003FF90F48012103F06BFF0D4BD3F86031C4
:101A60001846002101F08EF9094B0022C3F86021CD
:101A7000074BD3F86C3118460BF010F9044B0022D9
:101A8000C3F86C2101F08EFA4837BD46B0BD00BFE7
:101A9000C04F00205906200080B582B002AF102050
:101AA00001F02CFA134B93F8A001124BD3F87031CC
:101AB00003F122010F4BD3F8A4210F4B0093012314
:101AC00012F0ACFA0B4B93F87831184613F0F0FE95
:101AD00013F0A0FF14F062F90246064BC3F8902100
:101AE000044B012283F89821112001F007FABD462A
:101AF00080BD00BFC04F0020ED06200080B500AFC4
:101B0000064B93F85C319AB2044BDB880920242100
:101B100011F026F801F046FA80BD00BFC04F00204A
:101B200080B582B002AF122001F0E8F913F082FF15
:101B3000084B93F8A001074BD3F8703103F16A0109
:101B4000044BD3F8A421044B0093012312F066FA4E
:101B5000BD4680BDC04F0020ED06200080B500AF1F
:101B600001F020FA80BD00BF90B585B002AF78606B
:101B7000132001F0C3F9164B93F8A011144BB3F8DE
:101B80009E311C46124BD3F8A421124B00930846F9
:101B90002146012312F042FA0D4A7B68C2F87031E7
:101BA0000B4A7B68C2F87431094B93F8A001084BCB
:101BB000D3F8703103F1A401054BD3F8A421064BEF
:101BC0000093012312F02AFA0C37BD4690BD00BFE6
:101BD000C04F002059062000ED06200080B500AF60
:101BE000064B93F85C319AB2044BDB88092026211E
:101BF00010F0B6FF01F0D6F980BD00BFC04F002045
:101C0000B0B59AB002AF78600023FB83142001F0D6
:101C100075F9B74B93F8A011B54BB3F89E311C463C
:101C2000B34BD3F8A421B34B0093084621460123BC
:101C300012F0F4F913F066FE14F0B0F80246AC4B63
:101C4000D3F89031D31AAA4AD2F894211344A84A5F
:101C5000C2F8943109200AF0C3FF0246A44BC3F82E
:101C60006421A34BD3F86431002B08D109202C2127
:101C70000022002310F074FF01F094F995E19C4BD1
:101C8000D3F8643109221A70994BD3F864310922D0
:101C90005A70974BD3F86431954AD2F86421C13217
:101CA0005A60934BD3F864315868914BD3F8643140
:101CB00003F108018E4BD3F8643103F1BD048C4B62
:101CC000D3F8643103F1BE02894BD3F86431BF33DA
:101CD000009201938222234613F0C6FE844BD3F870
:101CE00064311B7A012B05D9814BD3F864311B7AFF
:101CF000802B0AD97E4BD3F864311B7A9BB2092022
:101D00003721022210F02CFF43E1794BD3F86431E4
:101D1000184602210BF0A4FE754BD3F8643193F8FA
:101D2000BF3083F00103DBB2002B00D031E1704BF8
:101D3000D3F8642107F12003104619460CF06CFA21
:101D400097F8203083F00103DBB2002B00D020E1B4
:101D5000674BD3F8643197F8222083F84D20644B09
:101D6000D3F8643197F8292083F84E20604BD3F8DC
:101D7000643197F8272083F899205D4BD3F86431BC
:101D80003C331A4607F14D031D685C689868D968B2
:101D9000156054609060D1601B7C1374544BD3F871
:101DA000642107F120031046194601F0B7FA0346F3
:101DB00083F00103DBB2002B00D0EAE04C4BD3F8F8
:101DC000643193F8A030002B23D001F027FA0346AA
:101DD000002B09D0464BD3F86431184601F06AFA5B
:101DE0000346002B15D0D4E0414BD3F8643193F86F
:101DF0004D30002B0CD13E4BD3F864213C4BD3F833
:101E0000643193F8B430104619460BF029FE00E017
:101E1000BFE0374BD3F8642197F8213010461946BC
:101E20000BF0DAFD97F82230002B21D197F82730FC
:101E3000002B1DD004200AF05DFC024607F12003B0
:101E40000B33184611460BF0A7FC0346002B0FD0AE
:101E5000274BD3F8642107F11E0310461946FEF7FD
:101E6000F1FF034683F00103DBB2002B00D090E0CA
:101E70001F4BD3F86421FB8BDBB2104619460BF0E5
:101E8000ABFD1B4A7B68C2F8703107F1200318468E
:101E900000F04EFA034683F00103DBB2002B00D0C2
:101EA00077E0134BD3F86431114AD2F8742192B21F
:101EB000C2F1460292B292B2A3F89E2097F8253062
:101EC000002B1BD00A4B93F89931002B16D0084BEE
:101ED00093F8A001064BD3F8703103F10A01044BCB
:101EE000D3F8A421044B0093012312F097F85CE08F
:101EF000C04F002059062000ED0620000AF0C0FB6C
:101F0000034683F00103DBB2002B35D0284BD3F816
:101F100064313C33184609F0EDFA0346002B25D115
:101F200001F07CF9034683F00103DBB2002B1DD1E5
:101F300007F10C03184609F0ABFA034683F00103DE
:101F4000DBB2002B12D107F10C03184609F0A0FAFE
:101F50000346002B10D007F10C03184603F0B0FB2A
:101F6000034683F00103DBB2002B05D0104BD3F8FE
:101F70007431184600F04EFE0D4BD3F8643118460C
:101F800000F020FF0A4B0022C3F8642101F00AF898
:101F90000BE0074BD3F8643118460AF07FFE044B80
:101FA0000022C3F8642100F0FDFF6037BD46B0BDDC
:101FB000C04F002090B583B002AF152000F09EFF07
:101FC000674B93F8A001664BD3F8703103F1190108
:101FD000634BD3F8A421634B0093012312F01EF846
:101FE00009200AF0FDFD02465D4BC3F868215C4BF9
:101FF000D3F86831002B12D109202C2100220023B4
:1020000010F0AEFD564BD3F86431184600F0DAFEFE
:10201000534B0022C3F8642100F0C4FF9CE0504BF6
:10202000D3F8683109221A704D4BD3F86831092270
:102030005A704B4BD3F874319BB2C3F146039BB239
:102040009AB2474BA3F89C21454BD3F86831022242
:1020500083F84D20424BD3F86831414AD2F86421CD
:1020600092F84E2083F84E203D4BD3F868313C4A1D
:10207000D2F8642192F8A02083F8A020384BD3F83E
:102080006831374AD2F8642192F8A12083F8A12060
:10209000334BD3F86831324AD2F8642192F8A22047
:1020A00083F8A2202E4BD3F868112D4BD3F868315A
:1020B00093F84D202A4BD3F8643193F84E40284BC7
:1020C000D3F864313C33009308461146002223467E
:1020D0000BF05CFF224BD3F8683193F8A030002B53
:1020E00011D01F4BD3F86831184601F0D7F80346DA
:1020F000002B08D01A4BD3F8683118460AF0CEFDF1
:1021000000F050FF28E0164BD3F868311846022142
:102110000BF088FC124B93F87831184613F0C8FB8B
:102120000F4BD3F868315A680D4BD3F868311B7ADE
:102130009BB21046194613F0F9FB13F033FC13F071
:102140002DFE0246064BC3F89021054B012283F871
:102150009821162000F0D2FE0437BD4690BD00BF86
:10216000C04F0020ED06200080B500AF064B93F86D
:102170005C319AB2044BDB880920252110F0F0FC79
:1021800000F010FF80BD00BFC04F002080B582B0BE
:1021900002AF172000F0B2FE094B93F8A001084BE4
:1021A000D3F8703103F13A01054BD3F8A421054B64
:1021B0000093012311F032FF13F004FCBD4680BDF3
:1021C000C04F0020ED06200080B500AF064B93F80D
:1021D0005C319AB2044BDB880920282110F0C0FC46
:1021E00000F0E0FE80BD00BFC04F002090B585B07C
:1021F00002AF7860182000F081FE144B93F8A01114
:10220000124BB3F89E311C46104BD3F8A421104B4F
:10221000009308462146012311F000FF0B4A7B681A
:10222000C2F87031094B93F8A001084BD3F8703114
:1022300003F15001054BD3F8A421064B0093012371
:1022400011F0ECFE0C37BD4690BD00BFC04F002022
:1022500059062000ED06200080B500AF064B93F82C
:102260005C319AB2044BDB880920292110F078FCFC
:1022700000F098FE80BD00BFC04F002090B585B033
:1022800002AF7860192000F039FE274B93F8A011B7
:10229000254BB3F89E311C46234BD3F8A421234B86
:1022A000009308462146012311F0B8FE1E4A7B68C0
:1022B000C2F870311C4BD3F8683118460AF0EEFCB6
:1022C000194B0022C3F868210AF0DAF9034683F0BB
:1022D0000103DBB2002B09D0134BD3F864313C333C
:1022E000184609F007F90346002B07D100F096FFC6
:1022F000034683F00103DBB2002B05D00A4BD3F871
:102300007431184600F086FC074BD3F86431184648
:1023100000F058FD044B0022C3F8642100F042FE97
:102320000C37BD4690BD00BFC04F002059062000AD
:1023300090B583B000AF78607B681B78002B27D006
:102340007B689B78012B03D07B689B78002B1FD187
:102350007B6803F10B0404200AF0CCF90346204605
:1023600019460BF019FA0346002B11D07B681C3379
:1023700018460AF063FA0346002B07D17B681C332A
:1023800018460BF0EDF80346002B01D0012300E0C6
:10239000002303F00103DBB218460C37BD4690BDA5
:1023A00090B583B000AF786039607B681B78002BF4
:1023B00027D07B689B78022B23D17B6803F10B0429
:1023C00004200AF097F90346204619460BF0E4F979
:1023D0000346002B15D07B681C3318460AF02EFAF2
:1023E0000346002B0DD07B6803F12D023B683C3384
:1023F000104619460BF0D0F90346002B01D00123FB
:1024000000E0002303F00103DBB218460C37BD46A1
:1024100090BD00BF80B582B000AF284BB3F8033049
:102420009BB201339AB2254BA3F80320234BB3F898
:1024300003309BB2002B14D1204BB3F801309BB278
:1024400001339AB21D4BA3F801201C4BB3F80130A5
:102450009BB2002B05D1194B1B780133DAB2174B15
:102460001A7003F09DF90346FB80FB88002B06D110
:10247000124BDB8801339AB2104BDA800BE00F4B22
:10248000DB880133FA8893FBF2F102FB01F29B1A1D
:102490009AB20A4BDA80094B93F879315A1C084BEF
:1024A0001340002B03DA013B63F00F030133DAB270
:1024B000024B83F879210837BD4680BDC04F00200C
:1024C0000F00008080B400AF0B4B0022DA800A4B73
:1024D000002283F87921084B00221A70064B002253
:1024E0005A7000229A70044B0022DA7000221A718E
:1024F000BD465DF8047B7047C04F002080B483B0B8
:1025000000AF7860164BB3F803309BB2DAB27B6849
:102510001A707B680133124AB2F8032092B2120A91
:1025200092B2D2B21A707B6802330D4AB2F801201F
:1025300092B2D2B21A707B680333094AB2F8012012
:1025400092B2120A92B2D2B21A707B680433044A71
:1025500012781A700C37BD465DF8047B704700BFD7
:10256000C04F002080B483B000AF054BB3F89C315E
:10257000FB80FB8818460C37BD465DF8047B70472E
:10258000C04F002080B483B000AF0346FB71084BFE
:10259000D3F86431FA7983F89820054BD3F8643185
:1025A000012283F89B200C37BD465DF8047B704701
:1025B000C04F002090B585B000AF786039603B68AF
:1025C0005B78786819460BF007FA0023FB813B68BB
:1025D0001B78002B20D03B68DB79002B1CD03B689C
:1025E0009B78002B18D13B6803F10B0404200AF000
:1025F00081F80346204619460BF0CEF80346002B1F
:102600000AD007F10E0378681946FEF71BFC034653
:10261000002B01D0012300E00023002B01D1002377
:102620001CE03B685B78786819460BF0AFF900F066
:10263000F5FD0346002B07D0786800F03BFE03460B
:10264000002B0AD1012309E07B6893F8B430786845
:1026500019460BF005FA012300E000231846143751
:10266000BD4690BD90B58FB002AF78603960002351
:1026700087F82F30002387F82E30002387F82D307D
:10268000002387F82C30002387F82B30002387F8AD
:102690002A3035E07B685A6897F82B3013441B7852
:1026A000BB847B685A6897F82B30013313441B783E
:1026B0001B029AB2BB8C13439BB2BB8497F82B309E
:1026C000023387F82B30BB8C87F82830BB8C03F49F
:1026D000F043DB12012B03D1BB8C1BB2002B07DBB9
:1026E00097F82B2097F82830134487F82B3007E011
:1026F000012387F82A3097F82B3087F8293005E036
:102700007B681B7A97F82B209A42C3D397F82A301C
:1027100083F00103DBB2002B01D0002364E122E14E
:102720007B685A6897F82B3013441B78BB847B680E
:102730005A6897F82B30013313441B781B029AB266
:10274000BB8C13439BB2BB8497F82B30023387F8C2
:102750002B30BB8CDB0B9BB287F8233097F82330F0
:10276000012B1BD1BB8C03F4F043DB1287F8223022
:10277000BB8C87F8273097F82230092B00D00CE06B
:102780007B685A6897F82B3013441B78184600F082
:1027900031FA012387F82F3000BFDDE0BB8C03F452
:1027A000FE431B1287F82230BB8C87F8273097F83E
:1027B00022301B2B27D01C2B18D01A2B00D0CBE09B
:1027C0007B685A6897F82B301344184600F010F9CC
:1027D0007B685A6897F82B30053313441B781846EA
:1027E000FFF7D0FE012387F82D30B5E07B685A68EB
:1027F00097F82B3013441B78184600F0EBF90123AF
:1028000087F82E30A8E07B685A6897F82B3013447D
:102810001B78184602F0C6FB7B685A6897F82B3085
:10282000013313441B78184602F0AAFB02F0B8FFEC
:10283000034687F8213097F82130002B40F088803C
:102840007B685A6897F82B30023313441B78BB849B
:102850007B685A6897F82B30033313441B781B02AC
:102860009AB2BB8C13439BB2BB84BB8C184602F05C
:102870006DFB7B685A6897F82B30043313441B7840
:1028800087F8203007F1080318460021112218F0BC
:10289000A3FB06233B72002387F8263052E07B68B7
:1028A000596897F82B0097F8262013469B0013448D
:1028B000034405330B441B78FB837B68596897F806
:1028C0002B0097F8262013469B001344034406333D
:1028D0000B441B781B029AB2FB8B13439BB2FB8306
:1028E0007B68596897F82B0097F8262013469B00C1
:1028F0001344034407330B441B78BB837B6859683C
:1029000097F82B0097F8262013469B0013440344A6
:1029100008330B441B781B029AB2BB8B13439BB248
:10292000BB83BB8BDCB2FA8B07F108030093104624
:1029300003210122234602F08BFB97F82630013356
:1029400087F8263097F8262097F820309A42A6D3A9
:10295000012387F82C3000BF97F82B2097F82730F9
:10296000134487F82B3097F82B2097F8291097F805
:1029700028300B449A421FDA97F82F3083F0010376
:10298000DBB2002B7FF4CCAE97F82E3083F001033E
:10299000DBB2002B7FF4C4AE97F82D3083F0010337
:1029A000DBB2002B7FF4BCAE97F82C3083F0010330
:1029B000DBB2002B7FF4B4AE97F82F30002B12D08F
:1029C00097F82E30002B0ED097F82D30002B0AD020
:1029D00097F82C30002B06D07B681B7A9AB23B68A4
:1029E0001A80012300E0002318463437BD4690BD0D
:1029F00080B483B000AF78607B681B789AB27B6844
:102A000001331B789BB21B029BB213449AB20D4B4D
:102A1000A3F803207B6802331B789AB27B680333E8
:102A20001B789BB21B029BB213449AB2054BA3F8CE
:102A300001207B681A79034B1A700C37BD465DF88C
:102A4000047B7047C04F002080B582B000AF02F019
:102A5000A7FE0346BB80314B1B783B60BA883B68BE
:102A6000B3FBF2F102FB01F29B1A3B603B681B04D3
:102A70003B602A4BB3F801309BB21A463B681344C3
:102A80003B60BA883B68B3FBF2F102FB01F29B1A90
:102A90003B603B681B043B60204BB3F803309BB2A8
:102AA0001A463B6813443B60BA883B68B3FBF2F1BB
:102AB00002FB01F29B1A3B603B689AB2174BDA802B
:102AC000164BDB88184602F02FFE02F055FE034637
:102AD0001A46124B1A810023FB710EE00F4B93F83C
:102AE00078310B3BFA790D490A4492F87C219342E4
:102AF00000D105E0FB790133FB71FB790F2BEDD998
:102B000002F08AFE03461A46FB799B1ADAB2034B9F
:102B100083F879210837BD4680BD00BFC04F002033
:102B200080B483B000AF0346FB71044AFB7982F89E
:102B300099310C37BD465DF8047B7047C04F0020CB
:102B400080B483B000AF0346FB71FB790A2B02D936
:102B5000FB791A2B03D9FB79002B00D007E0064A3A
:102B6000FB7982F87A31044B012283F87B210C3700
:102B7000BD465DF8047B7047C04F002080B483B031
:102B800000AF0346FB71044AFB7982F89A310C3797
:102B9000BD465DF8047B7047C04F002080B483B011
:102BA00000AF0346FB80044AFB88A2F89E310C3735
:102BB000BD465DF8047B7047C04F002080B400AF75
:102BC000034BB3F89E311846BD465DF8047B704751
:102BD000C04F002080B483B000AF0346FB71044AAD
:102BE000FB7982F88C310C37BD465DF8047B704769
:102BF000C04F002080B483B000AF0346FB71044A8D
:102C0000FB7982F88D310C37BD465DF8047B704747
:102C1000C04F002080B588B002AF786011F082FB11
:102C20000246284BD3F8A431D31A3B61254BB3F8A5
:102C30009E31FB607B68463BBB603A697B689A4289
:102C400002D2BB687B6103E0FA68BB6813447B6116
:102C50007A693B69D31A042B05DC7B6903F5A473FD
:102C60007B61FFF7D7FB174B93F8A011154BD3F8F7
:102C7000A421154B009308467969012311F0CEF980
:102C80007B699AB20F4BA3F89E210E4B40F61D12A2
:102C9000DA600C4B1B7C002B07D0BB689BB2092071
:102CA0001C211A4600230FF05BFF084B1B780133F1
:102CB000DAB2064B1A70B86800F0D2F81837BD4681
:102CC00080BD00BFC04F0020590620006851002081
:102CD00080B586B002AF78601A4BB3F89E31FB60C6
:102CE000FA687B681344BB60164B93F8A011154B30
:102CF000D3F8A421144B00930846B968012311F0BE
:102D00008DF9BB689AB20F4BA3F89E210D4B40F68C
:102D10001D12DA600B4B1B7C002B07D07B689BB22B
:102D200009201C211A4601230FF01AFF074B5B787C
:102D30000133DAB2054B5A70786800F091F8103719
:102D4000BD4680BDC04F00205906200068510020BC
:102D500080B582B000AF0346FB71094AFB7913745A
:102D6000074B1B7C002B04D012F0E6FA00F048F869
:102D700003E012F0E7FA02F0ABFD0837BD4680BD74
:102D8000C04F002080B582B000AF78600B46FB706A
:102D90007B68FA7883F83B207B685133074A1068D8
:102DA000186012791A717B680B225A70044802214C
:102DB0000FF0B2FD0837BD4680BD00BFC04F0020F8
:102DC0008961200080B582B000AF78607B685133A4
:102DD000094A1068186012791A717B6851331846D5
:102DE00002F088FD7B680B225A70044801210FF025
:102DF00093FD0837BD4680BDC04F002049622000CA
:102E000080B400AF154B00221A70144B00225A7088
:102E1000124B002242F07F029A700022DA700F4BB0
:102E2000002262F07E021A714FF0FF325A710B4B92
:102E30000022DA7100221A7200225A7200229A725B
:102E4000064B0022DA7200221A7300225A73002203
:102E50009A73BD465DF8047B704700BF685100203F
:102E600080B483B000AF78600E4BB3F902309BB2F0
:102E70001AB27B689A4203DD7B689AB2094B5A808A
:102E8000084BB3F904309BB21AB27B689A4203DA5A
:102E90007B689AB2034B9A800C37BD465DF8047B81
:102EA000704700BF6851002080B483B000AF034674
:102EB000FB71114B93F87A310A2B08D90E4B93F81A
:102EC0007A311A2B03D80C4B93F87A310DE00A4B68
:102ED00093F879311A46FB79134403F00F03064A3D
:102EE000134493F87C310B33DBB218460C37BD46E4
:102EF0005DF8047B704700BFC04F002080B582B0F2
:102F000000AF0346FB71264AFB7982F85C31244B03
:102F100093F85C31192B40D801A252F823F000BF7E
:102F20008F2F2000892F2000952F2000952F200023
:102F3000892F2000952F2000952F2000952F20000D
:102F4000952F2000952F2000952F2000952F2000F1
:102F5000952F2000952F2000952F20008F2F2000E7
:102F6000952F2000952F2000952F2000952F2000D1
:102F7000952F2000952F2000952F2000952F2000C1
:102F8000952F2000952F200011F0ACFF05E011F0E7
:102F90009FFF02E011F092FF00BF0837BD4680BDE1
:102FA000C04F002090B583B002AF12F0ABFC5C4B79
:102FB00093F89831002B0DD012F0F0FE0246584BDA
:102FC000D3F89031D31A564AD2F894211344544A74
:102FD000C2F89431524B93F8A011514BB3F89E3183
:102FE0001C464F4BD3F8A4214E4B00930846214674
:102FF000012311F013F84A4B0022C3F87021484B0B
:103000000022C3F87421484BD3F80720444BD3F86F
:1030100094311344444AC2F80730434BD3F80B3081
:103020003F4AB2F89E2113443F4AC2F80B303E4B50
:10303000D3F80B30002B0DDA3B4BD3F80B305B0889
:10304000394AC2F80B30384BD3F807305B08364AA0
:10305000C2F80730324B0022C3F89421304B0022D3
:1030600083F898212E4BD3F86031002B24D02C48C4
:10307000002102F05DFC2A4BD3F8603193F84F2019
:10308000013AD2B283F84F20254BD3F8603193F840
:103090004F30002B07D1224BD3F860311846012165
:1030A000FFF770FE04E01E4BD3F860310A225A701D
:1030B0001B4B0022C3F86021194BD3F86431002B5D
:1030C00009D0174BD3F86431184609F0E7FD144BCB
:1030D0000022C3F86421124BD3F86831002B09D0C9
:1030E0000F4BD3F86831184609F0D8FD0C4B00227D
:1030F000C3F868210A4BD3F86C31002B09D0084B78
:10310000D3F86C31184609F0C9FD054B0022C3F80D
:103110006C210020FFF7F2FE0437BD4690BD00BFD2
:10312000C04F0020590620006851002080B400AF35
:10313000034B1B7C1846BD465DF8047B704700BFFF
:10314000C04F002080B500AF0B4B00221A700A4B15
:1031500001225A70084B00229A7008480021102260
:1031600017F03AFF044B0022DA74054800211022C0
:1031700017F032FF80BD00BF885100208B51002026
:103180009C51002080B400AF034B9B781846BD468D
:103190005DF8047B704700BF8851002080B400AF09
:1031A000034BDB7C1846BD465DF8047B704700BFCF
:1031B0008851002090B482B000AF03463960FB71A3
:1031C000084AFB799370074B3A68033314685068D8
:1031D0009168D2681C6058609960DA600837BD4613
:1031E00090BC70478851002090B482B000AF034675
:1031F0003960FB71084AFB79D374074B3A68143382
:10320000146850689168D2681C6058609960DA60F0
:103210000837BD4690BC70478851002080B400AF8D
:103220000C4B1B7883F00103DBB2002B01D0012390
:103230000AE0084B9B78002B05D0064BDB7C002B6B
:1032400001D0012300E000231846BD465DF8047B51
:10325000704700BF8851002080B400AF034B0122AB
:103260001A70BD465DF8047B704700BF885100208E
:1032700080B483B000AF786000BF0C37BD465DF806
:10328000047B704780B483B000AF7860396000BFC2
:103290000C37BD465DF8047B704700BF80B483B037
:1032A00000AF7860002318460C37BD465DF8047BFC
:1032B000704700BF80B483B000AF78600023184629
:1032C0000C37BD465DF8047B704700BF80B483B007
:1032D00000AF0346FB71002318460C37BD465DF86E
:1032E000047B704780B483B000AF0346FB710B468C
:1032F000BB7113467B71002318460C37BD465DF841
:10330000047B704780B483B000AF78600023184618
:103310000C37BD465DF8047B704700BF80B483B0B6
:1033200000AF78603960012318460C37BD465DF860
:10333000047B704780B500AF0348002140F2B442DF
:1033400017F04AFE80BD00BFDC42002080B483B08D
:1033500000AF0023BB710023FB710FE0FA790C4929
:1033600013469B001344DB000B441B78002B02D058
:10337000BB790133BB71FB790133FB71FB791D2BE9
:10338000ECD9BB7918460C37BD465DF8047B704715
:10339000DC42002080B483B000AF0346FB71FA79B1
:1033A000064913469B001344DB000B441033DB88B3
:1033B00018460C37BD465DF8047B7047DC420020A0
:1033C00080B483B000AF0346FB71FA790749134616
:1033D0009B001344DB000B4418331B785BB2184688
:1033E0000C37BD465DF8047B704700BFDC4200200F
:1033F00080B483B000AF0346FB71FA7906491346E7
:103400009B001344DB000B4418339B7818460C37A1
:10341000BD465DF8047B7047DC42002080B584B077
:1034200000AF0346FB8007F10D03184608F01CF8B7
:103430000346002B27D07B7B1946154A0B469B0081
:103440000B44DB0013441B78002B1CD07B7B1A46FB
:1034500013469B001344DB0018330D4A1344053315
:103460001846FCF7C5FF0346FB81FA89FB889A42A0
:1034700009D97B7B1A4613469B001344DB00044AA0
:103480001344053300E0002318461037BD4680BDC5
:10349000DC42002080B483B000AFFF23BB71002367
:1034A0003B600023FB7135E0FA791F4913469B000E
:1034B0001344DB000B441B78002B28D0FA791A49FF
:1034C00013469B001344DB000B44DB78002B1ED01B
:1034D000FA79154913469B001344DB000B44203353
:1034E0009B78BA799A4212D3FA7913469B00134417
:1034F000DB000D4A134405333B60FA790A49134651
:103500009B001344DB000B4420339B78BB71FB7999
:103510000133FB71FB791D2BC6D93B6818460C376C
:10352000BD465DF8047B7047DC42002080B483B068
:1035300000AF0346FB71FA79064913469B0013441A
:10354000DB000B442033DB7818460C37BD465DF8B2
:10355000047B7047DC42002080B483B000AF034698
:10356000FB71FA79064913469B001344DB000B44B8
:1035700020331B7918460C37BD465DF8047B704735
:10358000DC42002080B584B000AF78600023FB737C
:1035900012E0FA7B13469B001344DB000E4A1344EF
:1035A0000533786819460AF0F7F80346002B00D077
:1035B00005E0FB7B0133FB73FB7B1D2BE9D9FA7B19
:1035C000054913469B001344DB000B4420335B7911
:1035D00018461037BD4680BDDC42002080B58CB057
:1035E00000AF7860002387F82E307B681B78032BB0
:1035F0000DD107F1080207F11C03786811461A463D
:1036000009F0EEFE00BF002387F82F302AE07B6828
:103610001B789BB20D2031211A4600230FF0C0FA0F
:1036200097F82E3024E007F11C0297F82F3010464F
:10363000194600F0E5FF0346002B0ED097F82F2027
:103640000D4913469B001344DB000B44DB78002B31
:1036500003D0012387F82E3008E097F82F3001338C
:1036600087F82F3097F82F301D2BDCD997F82E30A4
:1036700018463037BD4680BDDC42002080B483B0A0
:1036800000AF0346FB71FA790F4913469B001344C0
:10369000DB000B44DB78002B0BD0FA790A49134688
:1036A0009B001344DB000B441B78002B01D001234B
:1036B00000E0002303F00103DBB218460C37BD46DF
:1036C0005DF8047B704700BFDC42002080B584B009
:1036D00000AF78600123BB737B681B78022B0AD094
:1036E0007B681B789BB20D2031211A4600230FF016
:1036F00057FABB7B1CE000BF0023FB7314E0FB7B8D
:103700007868194600F07CFF0346002B09D0FA7B4D
:10371000094913469B001344DB000B445B78BB73E1
:1037200005E0FB7B0133FB73FB7B1D2BE7D9BB7BE8
:1037300018461037BD4680BDDC42002090B585B0EC
:1037400000AF0346FB71FA79104913469B001344FE
:10375000DB000B441B78002B10D0FA790B49134681
:103760009B001344DB000B441033DC8807F0F6FEAB
:1037700003469C4202D30123FB7301E00023FB7349
:10378000FB7B18461437BD4690BD00BFDC420020CD
:1037900080B485B000AF0346FB71FA790F49134638
:1037A0009B001344DB000B441B78002B0DD0FA79EF
:1037B0000A4913469B001344DB000B4418339B78E3
:1037C000102B02D90123FB7301E00023FB73FB7B69
:1037D00018461437BD465DF8047B7047DC42002074
:1037E00090B589B002AFF8607A601A460B46FB725A
:1037F0001346BB720123BB750023FB75F5E0FB7D0F
:10380000F868194600F0FCFE0346002B00F0EA8041
:103810000023BB75FA7D814913469B001344DB00EE
:103820000B4497F82C205A70FA7D7C4913469B0074
:103830001344DB000B4418335B780133D8B277496B
:1038400013469B001344DB000B44183302465A70A6
:10385000FA7D724913469B001344DB000B44183376
:10386000FA7A1A70FA7D13469B001344DB00183372
:103870006A4A134405337A681168196012791A711B
:10388000BB7A002B0AD0FA7D644913469B0013448F
:10389000DB000B44203397F828209A70FA7D5F49AB
:1038A00013469B001344DB000B44DB7883F00103D9
:1038B000DBB2002B45D0FA7D584913469B001344D8
:1038C000DB000B4418331B785BB213F14F0F2EDB78
:1038D000FA7D524913469B001344DB000B441B79CD
:1038E0000133D8B24D4913469B001344DB000B440F
:1038F00002461A71FA7D494913469B001344DB00C6
:103900000B441B79022B6CD9FA7D444913469B006A
:103910001344DB000B4400221A71FA7D3F49134621
:103920009B001344DB000B440122DA7059E0FA7D5E
:103930003A4913469B001344DB000B4400221A71E2
:1039400057E0FA7D354913469B001344DB000B44D6
:10395000DB78002B45D0FA7D304913469B00134499
:10396000DB000B4418331B785BB213F15A0F2EDACD
:10397000FA7D2A4913469B001344DB000B441B7954
:103980000133D8B2254913469B001344DB000B4496
:1039900002461A71FA7D214913469B001344DB004D
:1039A0000B441B79022B1CD9FA7D1C4913469B0042
:1039B0001344DB000B4400221A71FA7D17491346A9
:1039C0009B001344DB000B440022DA7011E0FA7D07
:1039D000124913469B001344DB000B4400221A716A
:1039E00007E006E0FB7D0133FB75FB7D1D2B7FF6B9
:1039F00006AFBB7D002B0ED097F90B20BC7A97F851
:103A00002830009397F82C300193F86811467A68B3
:103A1000234600F039FC1C37BD4690BDDC42002037
:103A200080B586B000AFF8607B600B46FB72134632
:103A3000BB72F86809F094FD0346002B00D09DE0AE
:103A40000023FB7596E0FB7DF868194600F0D8FD71
:103A50000346002B00F08B80FA7D4A4913469B00F9
:103A60001344DB000B4418339B781A46FB7AC3F1EE
:103A7000FF039A423DDDFA7D424913469B00134401
:103A8000DB000B4418331B790133D8B23D49134690
:103A90009B001344DB000B44183302461A71FA7D75
:103AA000F97D38480B469B000B44DB000344183378
:103AB0009B785B08D8B2334913469B001344DB0064
:103AC0000B44183302469A70FA7DF97D2D480B4657
:103AD0009B000B44DB0003441833DB785B08D8B24F
:103AE000284913469B001344DB000B44183302465D
:103AF000DA70FA7DF97D23480B469B000B44DB000E
:103B0000034418339978FB7A0B44D8B21D49134605
:103B10009B001344DB000B44183302469A70BB7AB7
:103B2000002B21D0FA7D174913469B001344DB007C
:103B30000B441833DB780133D8B2124913469B008B
:103B40001344DB000B4418330246DA70FA7D134647
:103B50009B001344DB0018330A4A134405337A6888
:103B60001168196012791A7107F014FD06E0FB7DE7
:103B70000133FB75FB7D1D2B7FF665AF1837BD4606
:103B800080BD00BFDC42002080B584B000AF78600B
:103B90000023FB733DE0FA7B13469B001344DB00DC
:103BA0001F4A134405337868194609F0F5FD0346AA
:103BB000002B2BD0FA7BF97B19480B469B000B445A
:103BC000DB00034420335B790133D8B21449134638
:103BD0009B001344DB000B44203302465A71FA7BEE
:103BE0000F4913469B001344DB000B4420335B79E1
:103BF000002B0AD1FA7B0A4913469B001344DB00D1
:103C00000B44203301225A7106E005E0FB7B0133AF
:103C1000FB73FB7B1D2BBED91037BD4680BD00BF9B
:103C2000DC42002080B584B000AF78600023FB73D5
:103C30001CE0FA7B13469B001344DB000E4A13443E
:103C400005337868194609F0A7FD0346002B0AD012
:103C5000FA7B094913469B001344DB000B442033D5
:103C600000225A7105E0FB7B0133FB73FB7B1D2BAC
:103C7000DFD91037BD4680BDDC42002080B584B05E
:103C800000AF78600B46FB701346BB700023FB73DC
:103C9000FB78022B1BD17B68591CBA7813469B001A
:103CA0001344DB00114A13449A1D0B4611685268F5
:103CB00019605A607B6802221A70BA780B49134661
:103CC0009B001344DB000B441B78FB7308E0FB787C
:103CD0009BB20D2031211A4601230EF061FF00BF77
:103CE000FB7B18461037BD4680BD00BFDC4200207C
:103CF00090B585B000AF78600023FB7353E0FA7B8A
:103D000013469B001344DB002A4A134405337868AA
:103D1000194609F041FD0346002B41D0FA7B2549A5
:103D200013469B001344DB000B4420339B79032B89
:103D300013D8FA7B1F4913469B001344DB000B4446
:103D400020339B790133D8B21A4913469B001344A0
:103D5000DB000B44203302469A71FC7B09F0D0FA59
:103D60000346D8B2FA7B134913469B001344DB0089
:103D70000B4420339B791A4601239340DBB2013B6D
:103D8000DBB2DBB202461340DBB2D9B2094A2346AA
:103D90009B002344DB00134420330A46DA7105E01C
:103DA000FB7B0133FB73FB7B1D2BA8D91437BD466E
:103DB00090BD00BFDC42002080B584B000AF7860C9
:103DC0000023FB7332E0FA7B13469B001344DB00B5
:103DD000194A134405337868194609F0DDFC034697
:103DE000002B20D0FA7B144913469B001344DB00C0
:103DF0000B442033DB79002B14D0FA7B0E49134699
:103E00009B001344DB000B442033DB79013BD8B229
:103E1000094913469B001344DB000B442033024640
:103E2000DA7106E005E0FB7B0133FB73FB7B1D2BA6
:103E3000C9D91037BD4680BDDC42002080B584B0B2
:103E400000AF78600023BB730023FB7320E0FA7B94
:103E500013469B001344DB00114A13440533786872
:103E6000194609F099FC0346002B0ED0FA7B0C4949
:103E700013469B001344DB000B442033DB79002BFB
:103E80000CBF01230023BB7305E0FB7B0133FB73F5
:103E9000FB7B1D2BDBD9BB7B18461037BD4680BD95
:103EA000DC42002080B584B000AF78600023FB7353
:103EB00026E0FA7B13469B001344DB00134A1344AD
:103EC00005337868194609F067FC0346002B14D0C7
:103ED000FA7B0E4913469B001344DB000B4420334E
:103EE00001229A71FA7B094913469B001344DB00B7
:103EF0000B4420330022DA7105E0FB7B0133FB73B6
:103F0000FB7B1D2BD5D91037BD4680BDDC42002080
:103F100080B483B000AF03460A46FB711346BB80F2
:103F2000FA79074913469B001344DB000B44103316
:103F3000BA88DA800C37BD465DF8047B704700BF55
:103F4000DC42002080B584B000AF78600023FB73B2
:103F500017E0FB7B7868194600F052FB0346002B04
:103F60000CD0FA7B0A4913469B001344DB000B4438
:103F700020330122DA7007F00DFB05E0FB7B0133F3
:103F8000FB73FB7B1D2BE4D91037BD4680BD00BF02
:103F9000DC42002080B483B000AF03460A46FB71C8
:103FA0001346BB71FA79B879064913469B0013444E
:103FB000DB000B4402469A700C37BD465DF8047B6B
:103FC000704700BFDC42002080B485B000AF0346DC
:103FD000FB71FA79434913469B001344DB000B4401
:103FE0001833DB78002B30D1FA793E4913469B0019
:103FF0001344DB000B4418339B78042B21D9FA7946
:10400000384913469B001344DB000B4418339B785C
:104010000F2B12D8FA79334913469B001344DB0067
:104020000B4418339B789BB21A46520013441B0270
:104030009BB2A3F50073FB814CE04FF6FF73FB814D
:1040400048E04FF42063FB8144E0FA7925491346A8
:104050009B001344DB000B4418339B789B02BB602E
:10406000BA6813465B0013441B021846FA791D49CF
:1040700013469B001344DB000B441833DB78B0FB82
:10408000F3F3BB60BB68A3F50023BB60BB68B3F16F
:10409000806F03D34FF6FF73FB8102E0BB689B0A7E
:1040A000FB81FB89B3F5206F14D9FA790D491346CA
:1040B0009B001344DB000B4418339B78102B09D969
:1040C000FA79084913469B001344DB000B44203364
:1040D00001221A71FB8918461437BD465DF8047B2E
:1040E000704700BFDC42002080B588B000AF3B1DA8
:1040F000184607F0CDF9034683F00103DBB2002B2D
:1041000072D13B1D184607F0C3F90346002B09D0B6
:104110003B1D184601F0D4FA034683F00103DBB2DD
:10412000002B61D10023FB775BE0FA7F3049134617
:104130009B001344DB000B441B78002B4ED0FA7F0E
:1041400013469B001344DB001833294A13440533FC
:104150001846FCF74DF9B861BB6940F61D12934251
:104160003CD9FA7F13469B001344DB00204A1344DA
:104170000533184600F00CFB07F11603184607F04C
:1041800073F90346FB75FB7D002B07D0BB7DFA7FDF
:104190009A4203D107F0AEFC07F0FCF9FA7F14490C
:1041A00013469B001344DB000B442033DB7883F081
:1041B0000103DBB2002B11D0FA7F0D4913469B009F
:1041C0001344DB000B4420331B7983F00103DBB283
:1041D000002B03D0FB7F184600F060F9FB7F013312
:1041E000FB77FB7F1D2BA0D92037BD4680BD00BFCC
:1041F000DC420020F0B58DB000AF214B93F8B23413
:104200005A1C204B82FB030153181911D317C91AEA
:104210000B461B015B1A5B00D11ACAB2184B83F81C
:10422000B224174B93F8B2343B71154B93F8B23468
:104230001946134A0B469B000B44DB0013441C46F3
:1042400007F1050E04F1200C754626460FCE2860B6
:104250006960AA60EB6010340EF1100E6445F3D172
:104260007246234603CB106051603B1D092019465E
:1042700029220EF013FC012318463437BD46F0BD49
:10428000DC42002089888888B0B586B000AFF8602D
:104290007A601A460B46FB721346BB72FB681B78AA
:1042A000022B09D0FB681B789BB20D2031211A46E6
:1042B00002230EF075FCCEE0F86800F0D1F803465A
:1042C00083F00103DBB2002B00F0C5800023FB75F7
:1042D000B3E0FA7D614913469B001344DB000B44B5
:1042E0001B7883F00103DBB2002B00F0A38097F969
:1042F0000B3013F1500F00DAA3E0FA7D5749134653
:104300009B001344DB000B4401221A70FA7D5349D1
:1043100013469B001344DB000B4497F82C205A7083
:10432000FA7D4E4913469B001344DB000B440122E7
:10433000DA70FA7D494913469B001344DB000B44B5
:1043400000221A71FA7D13469B001344DB00434A96
:1043500013440533FA68156854689068D1681D6085
:104360005C609860D960127C1A74FA7D3B491346F0
:104370009B001344DB000B4410334FF6FF72DA80CE
:10438000FA7D364913469B001344DB000B44183377
:10439000FA7A1A70FA7D314913469B001344DB0008
:1043A0000B44183301225A70FA7D2C4913469B00A6
:1043B0001344DB000B44183300229A70FA7D27491E
:1043C00013469B001344DB000B4418330022DA70C1
:1043D000FA7D13469B001344DB0018331F4A134435
:1043E00005337A681168196012791A71FA7D1B49D0
:1043F00013469B001344DB000B44203301229A71C7
:10440000FA7D164913469B001344DB000B4420330E
:104410000022DA71BB7A002B0BD0FA7D0F491346CC
:104420009B001344DB000B44203397F828209A703C
:1044300007E006E0FB7D0133FB75FB7D1D2B7FF65E
:1044400048AFFB7D1E2B06D10D2014211E22002318
:104450000EF086FB00BF1837BD46B0BDDC42002021
:1044600080B584B000AF78600023FB730023FB733A
:104470000CE0FB7B7868194600F0C2F80346002B7D
:1044800001D0012306E0FB7B0133FB73FB7B1D2B7B
:10449000EFD9002318461037BD4680BD80B483B0E5
:1044A00000AF0346FB71FA79544913469B0013444D
:1044B000DB000B4400221A70FA79504913469B0026
:1044C0001344DB000B4400229A70FA794B491346DF
:1044D0009B001344DB000B440022DA70FA79474951
:1044E00013469B001344DB000B4400221A71FA7937
:1044F000424913469B001344DB000B4400225A71CF
:10450000FA793E4913469B001344DB000B441033F9
:104510004FF6FF72DA80FA79384913469B0013444C
:10452000DB000B44183300221A70FA793349134622
:104530009B001344DB000B44183300225A70FA79B5
:104540002E4913469B001344DB000B441833002212
:104550009A70FA79294913469B001344DB000B44F7
:1045600018330022DA70FA79244913469B00134469
:10457000DB000B44183300221A81FA791F491346D5
:104580009B001344DB000B4418330022DA80FA79D5
:104590001A4913469B001344DB000B4418330022D6
:1045A0005A71FA79154913469B001344DB000B44FA
:1045B00020330022DA70FA79104913469B00134425
:1045C000DB000B44203300225A71FA790B49134661
:1045D0009B001344DB000B44203301229A71FA79CB
:1045E000064913469B001344DB000B442033002292
:1045F000DA710C37BD465DF8047B7047DC42002061
:1046000080B582B000AF78600B46FB707B681B788A
:10461000022B1FD1FA78164913469B001344DB0086
:104620000B441B78002B10D0FA7813469B001344E0
:10463000DB000F4A134405337868194609F0ACF8DB
:104640000346002B01D0012300E0002303F0010307
:10465000DBB209E07B681B789BB20D2031211A4642
:1046600003230EF09DFA002318460837BD4680BD8F
:10467000DC42002090B583B002AF1A4800210A2224
:1046800016F0AAFC174B00221A7017481749184A4F
:10469000184B01F0D9FA0FF041FB03461A46114BB3
:1046A0001A71104B47F23052DA800E4B1C790D4BC9
:1046B000DA880C4BDB881046194608F05BFE03468F
:1046C0001A460D4B009320461146002201230FF09D
:1046D00055FB0FF023FB03461A46024B1A720437B0
:1046E000BD4690BDAC510020CD472000DD472000E5
:1046F000ED472000FD472000A948200080B582B08A
:1047000000AF7860786806F0F5FE034683F0010399
:10471000DBB2002B00D01BE00F4B9B780133DAB2E9
:104720000D4B9A700C4B9B78102B11D10A4BDB78F8
:104730000C2B01D900F008F9074BDB78032B01D8CB
:1047400000F046F9044B00229A70034B0022DA7005
:104750000837BD4680BD00BFAC51002080B582B097
:1047600000AF7860786806F0C5FE034683F0010369
:10477000DBB2002B00D005E0044BDB780133DAB26A
:10478000024BDA700837BD4680BD00BFAC51002037
:1047900080B588B006AF7860786800F091FF034676
:1047A000002B0FDD002300930023019300230293CD
:1047B0000023039300230493072079680122072331
:1047C00001F05CFA0837BD4680BD00BF80B400AF81
:1047D00000231846BD465DF8047B704780B400AFE7
:1047E00000231846BD465DF8047B704780B400AFD7
:1047F00000231846BD465DF8047B704780B586B03F
:1048000002AF03463960FB71FB79032B02D0FB79C1
:10481000092B1ED1184B01225A7208F071FD034674
:10482000164AA2FB0312520B47F2305101FB02F26F
:104830009B1A9BB203F5EA433033FB810E4B197A86
:10484000FA890F4B009308461146002201230FF00E
:1048500095FAFB79062B02D0FB79072B03D1094887
:1048600008210EF059F8FB79082B02D13868FFF7C0
:1048700069FB1037BD4680BDAC51002073B2E745DF
:10488000894820000149200080B483B000AF03466E
:10489000FB71044B00225A720C37BD465DF8047B55
:1048A000704700BFAC51002090B585B002AF034601
:1048B000FB710D4808210EF02FF80C4B1C790B4BA7
:1048C000DA880A4BDB881046194608F053FD034688
:1048D0001A46074B009320461146002201230FF091
:1048E0004DFA0C37BD4690BDF5482000AC51002074
:1048F000A948200080B500AF00F07AF980BD00BF64
:1049000080B58CB006AF3B1D184606F0C1FD0346CE
:10491000FB75FB7D83F00103DBB2002B10D13A1D48
:1049200000230093002301930023029300230393A9
:1049300000230493072011460122072301F09EF96A
:104940001837BD4680BD00BF80B592B006AFFEF7F8
:10495000EDFB034683F00103DBB2002B00D032E015
:104960001A4B5B7A002B00D02DE007F11C03184690
:1049700006F08EFD034687F82F3097F82F3083F02E
:104980000103DBB2002B00D01DE03B46184601219D
:1049900000F07EF8034683F00103DBB2002B00D069
:1049A00011E007F11C023B46009300230193002312
:1049B0000293002303930023049301201146012254
:1049C000072301F05BF93037BD4680BDAC510020B4
:1049D00080B592B006AFFEF7A9FB034683F0010352
:1049E000DBB2002B00D03EE0204B5B7A002B00D0E6
:1049F00039E007F11C03184606F04AFD034687F824
:104A00002F3097F82F3083F00103DBB2002B00D05A
:104A100029E007F11C03184600F0F6FC0346012BC1
:104A200000D820E03A4607F11C031046194601223F
:104A300000F088F8034683F00103DBB2002B00D0BE
:104A400011E007F11C02002300933B460193002371
:104A500002930023039300230493022011460122B2
:104A6000072301F00BF93037BD4680BDAC51002063
:104A700080B483B000AF0346FB71044AFB79137026
:104A80000C37BD465DF8047B704700BFAC51002079
:104A900090B585B000AF78600B46FB707868002158
:104AA000192216F099FA0023BB730023FB7338E038
:104AB00008F026FC03461C4600F072FE0346B4FBD9
:104AC000F3F203FB02F3E31ABB81BB89184600F043
:104AD00015FC0346002B21D0BA7B13469B001344E0
:104AE0007A681344BA89A3F80120BA7B13469B0065
:104AF00013447A68D41808F003FC034603F00F034C
:104B00009BB2A4F80330BA7B13469B0013447A6827
:104B1000134401221A70BB7B0133BB73FB7B01334F
:104B2000FB73FB7B042BC3D9BA7BFB789A4202D37D
:104B3000FB78002B01D1002300E001231846143735
:104B4000BD4690BD90B589B000AFF860B96013461E
:104B5000FB71F8680021192216F03EFA0023BB779A
:104B60000023FB7731E0FB7F9AB207F11003104678
:104B7000B9681A4600F028FA3B7E012B22D1BA7F91
:104B800013469B001344FA681344FA7F92B2A3F8C9
:104B90000120BA7F13469B001344FA6813443A7FFE
:104BA00092B2A3F80320BA7F13469B001344FA681D
:104BB000134401221A70BB7F0133BB77BB7F052BE7
:104BC00000D109E0FB7F0133FB77FB7F9CB200F053
:104BD000E7FD03469C42C6D3BA7FFB799A4201D2D5
:104BE000002300E0012318462437BD4690BD00BFD6
:104BF00080B59AB006AFFEF799FA034683F0010339
:104C0000DBB2002B00D05BE007F13C03184606F056
:104C10003FFC034687F84F3097F84F3083F001038D
:104C2000DBB2002B00D04BE007F13C03184600F04C
:104C3000EBFB0346002B02D1FFF786FE40E0224B40
:104C40005B7A002B00D03BE007F13C03184600F0F4
:104C500045FC034683F00103DBB2002B00D02FE0BC
:104C60003B1D18460021192216F0B6F907F13C0247
:104C70003B1D1046194600F06DFC0346002B1FD06B
:104C800007F1200318460121FFF702FF034683F0D6
:104C90000103DBB2002B00D012E007F13C0207F168
:104CA000200300933B1D01930023029300230393F1
:104CB00000230493032011460122072300F0DEFFA6
:104CC0005037BD4680BD00BFAC51002080B588B0D4
:104CD00002AF254800214FF4027216F07DF900233F
:104CE000FB820CE0FA8A1346DB0013449B001E4A49
:104CF0001344184600F0F6FEFB8A0133FB82FB8A60
:104D00000D2BEFD9184B012283F80222164B0E22ED
:104D1000A3F8FE210023BB8207F0B2FC0346002B60
:104D200001D000F023F8BB8A0133BB823B46184612
:104D30000021112216F050F9BB8AFB820BE0FA8A9F
:104D40003B460093104604210022002300F080F926
:104D5000FB8A0133FB82FA8ABB8A03339A42EEDB79
:104D60001837BD4680BD00BFB851002080B588B05F
:104D700002AF0023BB82164BB3F8FC31002B02D1EB
:104D8000652000F0E3F8002000F0FAF8012000F0C0
:104D900009F93B4618460021112216F01DF9062399
:104DA0003B70BB8AFB820BE0FA8A3B4600931046BD
:104DB00003210122002300F04BF9FB8A0133FB821F
:104DC000FA8ABB8A01339A42EEDB1837BD4680BDB2
:104DD000B8510020B0B588B000AF4F4B93F8043203
:104DE00001334D4AB2F8FE2193FBF2F102FB01F2CE
:104DF0009B1ADAB2484B83F80422474B93F80432EB
:104E00003B70454B93F804321946434A0B46DB008E
:104E10000B449B0013441B88A7F801303E4B93F8CA
:104E2000043219463C4A0B46DB000B449B001344FA
:104E30009B78FB70384B93F804321946364A0B4680
:104E4000DB000B449B001344DB783B71324B93F83F
:104E500004321946304A0B46DB000B449B001344D6
:104E60001B797B712C4B93F804321A461346DB00F6
:104E700013449B00284A13445A1DBB1D15685468EF
:104E80009068D1681D605C609860D960127C1A746B
:104E9000214B93F8043219461F4A0B46DB000B44A2
:104EA0009B00134410339B79FB751B4B93F8043222
:104EB0001946194A0B46DB000B449B001344103380
:104EC000DB793B76144B93F804321946124A0B46B1
:104ED000DB000B449B00134418331B787B760E4B8E
:104EE00093F804321A461346DB0013449B00183330
:104EF000094A13445A1C07F11A0311681960127900
:104F00001A713B46062019461F220DF0C7FD0123EA
:104F100018462037BD46B0BDB851002080B582B0DC
:104F200000AF094B93F802323B71074B93F8033201
:104F30007B713B1D0720194602220DF0AFFD0123B6
:104F400018460837BD4680BDB851002080B582B0F4
:104F500000AF0346FB8013F0BFF8084AFB88A2F8B5
:104F6000FC31FB880E2B03D8044AFB88A2F8FE31E3
:104F700013F0A6F80837BD4680BD00BFB851002029
:104F800080B582B000AF0346FB7113F0A5F8044A68
:104F9000FB7982F8003213F093F80837BD4680BDE4
:104FA000B851002080B582B000AF0346FB7113F00A
:104FB00093F8044AFB7982F8013213F081F808373C
:104FC000BD4680BDB851002080B586B000AF034615
:104FD000B9607A60FB811D4B7B611DE07B69053305
:104FE000B868194608F0D8FB0346002B11D07B693E
:104FF0001B88FA899A420CD17B699A787B681A726D
:105000007B69DA787B685A727B691A797B681A73D4
:1050100018E07B6924337B610C4BB3F8FE315A1ED8
:105020001346DB0013449B00084A1A447B699A42EA
:10503000D4D27B6800221A727B6800225A727B6885
:1050400000221A731837BD4680BD00BFB85100203A
:1050500090B589B000AF0446084611461A4623466B
:10506000FB8003467B710B463B711346FB7013F0CC
:1050700033F8654BFB6102E0FB692433FB61FB699C
:105080009B78002B0CD0604BB3F8FE315A1E1346B0
:10509000DB0013449B005C4A1A44FB699A42EBD242
:1050A000594BB3F8FE315A1E1346DB0013449B00E4
:1050B000554A1A44FB699A4209D213F001F80E20AE
:1050C0001721002200230DF04BFD012397E0FB691F
:1050D000FA881A80FB697A799A70FB693A79DA70F2
:1050E000FB69FA781A71FB6905331846396B11228E
:1050F00015F0FCFE07F10C031846FDF7FFF97B7B6A
:105100009BB21B029AB23B7B9BB213449AB2FB69DF
:105110009A83FB7B9BB21B029AB2BB7B9BB213446C
:105120009AB2FB695A833A7CFB695A76364BD3F8BC
:10513000F831002B07D1FB69FA691A62324AFB6920
:10514000C2F8F83158E0304BD3F8F831BB61BB6995
:105150001B6A7B61BB691A88FB691B889A4205D26E
:10516000FB691A887B691B889A423FD3BB691A88FE
:10517000FB691B889A4205D27B691A88BB691B8828
:105180009A4233D9FB691A887B691B889A4205D2F7
:105190007B691A88BB691B889A4227D9BB691A8820
:1051A000FB691B889A421ED1FB691B880E203F2198
:1051B0001A4600230DF0D4FCFB6900221A80FB691B
:1051C00000229A70FB690022DA70FB6900221A71D2
:1051D000FB69053318460021112215F0FDFE12F07F
:1051E0006FFF01230BE07B69BB61B0E7BB69FA6924
:1051F0001A62FB697A691A6212F062FF002318468C
:105200002437BD4690BD00BFB851002080B584B0A2
:1052100000AF03463960FB8012F05EFF364BFB6047
:1052200011E0FB681B88FA889A4209D1FB680533B4
:105230003868194608F0B0FA0346002B00D00FE09A
:10524000FB682433FB602C4BB3F8FE315A1E134627
:10525000DB0013449B00284A1A44FB689A42E0D2C0
:10526000254BB3F8FE315A1E1346DB0013449B0056
:10527000214A1A44FB689A4209D212F021FF0E20FB
:105280002E21002200230DF08BFC012330E0FB686F
:105290001A6AFB689A4207D1FB6800221A62164B11
:1052A0000022C3F8F8211DE0134BD3F8F831BB609E
:1052B000BB681A6AFB689A420BD100BFFB681A6A86
:1052C000BB681A620C4BD3F8F821FB689A4209D1EB
:1052D00003E0BB681B6ABB60EAE7FB681B6A064A1F
:1052E000C2F8F831F86800F0FDFB12F0E9FE002387
:1052F00018461037BD4680BDB851002080B584B037
:1053000000AF0346FB8012F0E7FE134BB3F8FC310D
:10531000FA889A4203D312F0D3FE002318E00E4B12
:10532000D3F8F831FB60FB681B88FA889A4203D1F6
:1053300012F0C6FE00230BE0FB681B6AFB60064B05
:10534000D3F8F821FB689A42EDD112F0B9FE01239F
:1053500018461037BD4680BDB851002080B584B0D6
:1053600000AF03463960FB710023FB731DE0FA7B3D
:105370001346DB0013449B000F4A134405331846C1
:10538000396808F009FA0346002B0BD0FA7B0A496A
:105390001346DB0013449B000B441B8818463968F6
:1053A000FFF734FFFB7B0133FB73FB7B0D2BDED957
:1053B0001037BD4680BD00BFB851002080B582B017
:1053C00000AF12F089FE0023BB710023FB710FE0D8
:1053D000FA790C491346DB0013449B000B449B787D
:1053E000002B02D1BB790133BB71FB790133FB7117
:1053F000FB790D2BECD912F063FEBB791846083708
:10540000BD4680BDB851002080B584B000AF786043
:1054100012F062FE0023BB730023FB7314E0FA7BDF
:105420001346DB0013449B000C4A13440533184613
:10543000796808F0B1F90346002B02D0BB7B013339
:10544000BB73FB7B0133FB73FB7B0D2BE7D912F0A6
:1054500037FEBB7B18461037BD4680BDB8510020D3
:1054600080B584B000AF786012F036FE0023FB7385
:1054700027E0FA7B18491346DB0013449B000B44DA
:105480005B79022B1AD1FA7B1346DB0013449B0095
:10549000114A134405331846796808F07DF903462C
:1054A00083F00103DBB2002B08D0FA7B1346DB004C
:1054B00013449B00084A1344053308E0FB7B013387
:1054C000FB73FB7B0D2BD4D912F0FAFD0023184699
:1054D0001037BD4680BD00BFB851002080B584B0F4
:1054E00000AF786012F0F8FD0023BB730023FB735C
:1054F00024E0FA7B1346DB0013449B00144A134458
:1055000005331846796808F047F90346002B12D096
:10551000FA7B0F491346DB0013449B000B44103306
:10552000DB79DBB25BB2002B01DA0123BB7312F033
:10553000C7FDBB7B08E0FB7B0133FB73FB7B0D2BC3
:10554000D7D912F0BDFDBB7B18461037BD4680BDD4
:10555000B851002080B584B000AF7860396012F097
:10556000BBFD0023BB810023FB733BE0FA7B1346AA
:10557000DB0013449B00514A1344053318467968F5
:1055800008F00AF90346002B29D0FA7B4B49134651
:10559000DB0013449B000B441033DB79002B1ED03F
:1055A000FA7B46491346DB0013449B000B44183337
:1055B0001B781A46642303FB02F1FA7B3F4813462B
:1055C000DB0013449B0003441033DB7991FBF3F3BE
:1055D0007B817A89BB899A4201D97B89BB81FB7B1C
:1055E0000133FB73FB7B0D2BC0D9BB89002B01D191
:1055F00000235FE00023FB7356E0FA7B1346DB00D9
:1056000013449B002D4A134405331846796808F06B
:10561000C3F80346002B44D0FA7B28491346DB002D
:1056200013449B000B441033DB79002B39D0FA7BF9
:1056300022491346DB0013449B000B4418331B78AC
:105640001A46642303FB02F1FA7B1C481346DB0075
:1056500013449B0003441033DB7991FBF3F37B810C
:10566000BA897B89D31A322B1BDD3B6801221A7061
:10567000FA7B12491346DB0013449B000B441A8843
:105680003B68A3F80120FA7B0C491346DB00134466
:105690009B000B441B799AB23B68A3F803200123BB
:1056A00008E0FB7B0133FB73FB7B0D2BA5D912F0CC
:1056B00007FD002318461037BD4680BDB8510020B5
:1056C00080B584B000AF786012F006FD0023FB7354
:1056D0001DE0FA7B13491346DB0013449B000B4487
:1056E0005B79022B10D1FA7B1346DB0013449B003D
:1056F0000C4A134405337868194608F04DF8034600
:10570000002B01D0012308E0FB7B0133FB73FB7B03
:105710000D2BDED912F0D4FC002318461037BD46FD
:1057200080BD00BFB851002080B582B000AF0346F5
:10573000FB8012F0D1FC01E000F00EF8054BD3F82D
:10574000F8311B88FA889A42F6D112F0B9FC083772
:10575000BD4680BDB851002080B500AF12F0BCFC42
:10576000044BD3F8F8311B6A024AC2F8F83112F040
:10577000A7FC80BDB851002080B582B000AF12F008
:10578000ABFC064BD3F8F8311B6A1B88FB8012F088
:1057900097FCFB8818460837BD4680BDB8510020ED
:1057A00080B582B000AF12F097FC054BB3F8FC3126
:1057B000FB8012F085FCFB8818460837BD4680BD8B
:1057C000B851002080B582B000AF12F085FC064BC6
:1057D000D3F8F8319B78FB7112F072FCFB79184614
:1057E0000837BD4680BD00BFB851002080B582B0EB
:1057F00000AF786012F070FC064BD3F8F831053337
:1058000078681946112215F071FB12F059FC08371F
:10581000BD4680BDB851002080B582B000AF12F007
:105820005BFC064BD3F8F8311B79FB7112F048FC96
:10583000FB7918460837BD4680BD00BFB85100202F
:1058400080B582B000AF12F047FC204BD3F8F8319E
:10585000DB7883F00103DBB2002B02D00123FB7164
:105860002DE01A4BD3F8F8315B79062B17D1174B83
:1058700093F80332002B07D0144B93F80332013B0B
:10588000DAB2124B83F80322104B93F80332002B49
:1058900002D10123FB7112E00023FB710FE00B4BDF
:1058A000D3F8F83105331846FEF786FA074BD3F8DC
:1058B000F83105331846FEF7C1FA0346FB7112F0C2
:1058C000FFFBFB7918460837BD4680BDB851002064
:1058D00080B500AF12F000FC054B012283F80222D4
:1058E000034B002283F8032212F0EAFB80BD00BFC5
:1058F000B851002080B582B000AF786012F0ECFBA8
:105900000A4BD3F8F8319A7D0132D2B29A75074B1F
:10591000D3F8F831193318467968052215F0E6FAFC
:1059200012F0CEFB0837BD4680BD00BFB851002045
:1059300080B582B000AF78600B46FB7012F0CCFBF4
:10594000434BD3F8F831DB7DFF2B13D1404BD3F819
:10595000F8313F4AD2F8F821D27D5208D2B2DA7536
:105960003B4BD3F8F8313A4AD2F8F821127E52086C
:10597000D2B21A76364BD3F8F831DA7D0132D2B290
:10598000DA75FB78002B06D0314BD3F8F8311A7E4C
:105990000132D2B21A762E4BD3F8F83119331846A9
:1059A0007968052215F0A2FA294BD3F8F831DB7893
:1059B000002B48D0FB78002B16D0254BD3F8F831BC
:1059C0005B79062B08D1224B012283F80222204B5F
:1059D000002283F8032236E01D4BD3F8F83105335B
:1059E0001846FEF75FFA2EE0194BD3F8F8315B79D1
:1059F000062B21D1164B93F80232032B07D8144BF8
:105A000093F802320133DAB2114B83F8022207F025
:105A100077FC0346DAB20E4B93F8023219460123A3
:105A20008B40DBB2013BDBB2DBB21340DBB2DAB25C
:105A3000074B83F8032206E0054BD3F8F831053312
:105A40001846FEF755F912F03BFB0837BD4680BDFE
:105A5000B851002080B586B000AF3A601A460346C0
:105A6000FB710B46BB7113467B7112F035FB7B79E2
:105A7000012B01D10123FB737B79022B01D102237E
:105A8000FB737B79072B01D10323FB730023FB7589
:105A9000134B3B613B699B78FA7B9A4211D13B697E
:105AA0001A88BB799BB29A420BD33B691A883B6A2E
:105AB0001A803B691B799AB27B6A1A800123FB75B5
:105AC00006E03B691B6A3B613B69054A9342E1D1B1
:105AD00012F0F6FAFB7D18461837BD4680BD00BFB0
